{
    "_format": "hh-sol-artifact-1",
    "contractName": "SlotMachine",
    "sourceName": "contracts/SlotMachine.sol",
    "abi": [
        {
            "inputs": [],
            "stateMutability": "payable",
            "type": "constructor"
        },
        {
            "anonymous": false,
            "inputs": [
                {
                    "indexed": true,
                    "internalType": "address",
                    "name": "from",
                    "type": "address"
                },
                {
                    "indexed": false,
                    "internalType": "uint256",
                    "name": "timestamp",
                    "type": "uint256"
                },
                {
                    "indexed": false,
                    "internalType": "string",
                    "name": "message",
                    "type": "string"
                }
            ],
            "name": "Result",
            "type": "event"
        },
        {
            "anonymous": false,
            "inputs": [
                {
                    "indexed": false,
                    "internalType": "uint256",
                    "name": "betAmount",
                    "type": "uint256"
                },
                {
                    "indexed": false,
                    "internalType": "uint256",
                    "name": "userBalance",
                    "type": "uint256"
                },
                {
                    "indexed": false,
                    "internalType": "uint256",
                    "name": "contractBalance",
                    "type": "uint256"
                }
            ],
            "name": "balances",
            "type": "event"
        },
        {
            "inputs": [],
            "name": "contractBalance",
            "outputs": [
                {
                    "internalType": "uint256",
                    "name": "",
                    "type": "uint256"
                }
            ],
            "stateMutability": "view",
            "type": "function"
        },
        {
            "inputs": [
                {
                    "internalType": "uint256",
                    "name": "_betAmount",
                    "type": "uint256"
                }
            ],
            "name": "logicOfLuck",
            "outputs": [],
            "stateMutability": "payable",
            "type": "function"
        },
        {
            "inputs": [
                {
                    "internalType": "uint256",
                    "name": "_betAmount",
                    "type": "uint256"
                }
            ],
            "name": "play",
            "outputs": [],
            "stateMutability": "payable",
            "type": "function"
        },
        {
            "inputs": [],
            "name": "random",
            "outputs": [
                {
                    "internalType": "uint8",
                    "name": "",
                    "type": "uint8"
                }
            ],
            "stateMutability": "nonpayable",
            "type": "function"
        }
    ],
    "bytecode": "0x60806040526000600155620000546040518060400160405280600e81526020017f436f6e74726163742068657265210000000000000000000000000000000000008152506200005a60201b620006021760201c565b620001e4565b620000fa81604051602401620000719190620001c0565b6040516020818303038152906040527f41304fac000000000000000000000000000000000000000000000000000000007bffffffffffffffffffffffffffffffffffffffffffffffffffffffff19166020820180517bffffffffffffffffffffffffffffffffffffffffffffffffffffffff8381831617835250505050620000fd60201b60201c565b50565b60008151905060006a636f6e736f6c652e6c6f679050602083016000808483855afa5050505050565b600081519050919050565b600082825260208201905092915050565b60005b838110156200016257808201518184015260208101905062000145565b60008484015250505050565b6000601f19601f8301169050919050565b60006200018c8262000126565b62000198818562000131565b9350620001aa81856020860162000142565b620001b5816200016e565b840191505092915050565b60006020820190508181036000830152620001dc81846200017f565b905092915050565b610f2680620001f46000396000f3fe60806040526004361061003f5760003560e01c80635ec01e4d146100445780636898f82b1461006f5780638b7afe2e1461008b5780638c359473146100b6575b600080fd5b34801561005057600080fd5b506100596100d2565b6040516100669190610815565b60405180910390f35b6100896004803603810190610084919061086b565b61012d565b005b34801561009757600080fd5b506100a0610259565b6040516100ad91906108a7565b60405180910390f35b6100d060048036038101906100cb919061086b565b61025f565b005b6000600160008154809291906100e7906108f1565b919050555060144233600154604051602001610105939291906109d4565b6040516020818303038152906040528051906020012060001c6101289190610a40565b905090565b60003373ffffffffffffffffffffffffffffffffffffffff163190506101886040518060400160405280600b81526020017f62657420616d6f756e74200000000000000000000000000000000000000000008152508361069b565b6101c76040518060400160405280600e81526020017f757365722062616c616e63653a200000000000000000000000000000000000008152508261069b565b4760008190555061020f6040518060400160405280601281526020017f636f6e74726163742042616c616e63653a20000000000000000000000000000081525060005461069b565b7fec1755815c979b26f7aae33a09175d2f4fa82c802354e2c2ec79d20732029c0a828260005460405161024493929190610a71565b60405180910390a16102558261025f565b5050565b60005481565b60006102696100d2565b905060006102756100d2565b905060006102816100d2565b905060006102c46040518060400160405280600c81526020017f416d6f756e74206265743a2000000000000000000000000000000000000000008152508661069b565b6103066040518060400160405280600781526020017f5265656c313a20000000000000000000000000000000000000000000000000008152508560ff1661069b565b6103486040518060400160405280600781526020017f5265656c323a20000000000000000000000000000000000000000000000000008152508460ff1661069b565b61038a6040518060400160405280600781526020017f5265656c333a20000000000000000000000000000000000000000000000000008152508360ff1661069b565b60008360ff168560ff1614806103a557508260ff168460ff16145b806103b557508460ff168360ff16145b156104b4578360ff168560ff161480156103d457508260ff168460ff16145b15610444576003866103e69190610aa8565b90506103f181610737565b3373ffffffffffffffffffffffffffffffffffffffff167fab13770b3bea602d439696b4418374f25e3261f7d6de9b218ffd9b49b9f4b9d9426040516104379190610b6d565b60405180910390a26104ab565b3373ffffffffffffffffffffffffffffffffffffffff167fab13770b3bea602d439696b4418374f25e3261f7d6de9b218ffd9b49b9f4b9d94260405161048a9190610c0d565b60405180910390a260028661049f9190610aa8565b90506104aa81610737565b5b60019150610503565b3373ffffffffffffffffffffffffffffffffffffffff167fab13770b3bea602d439696b4418374f25e3261f7d6de9b218ffd9b49b9f4b9d9426040516104fa9190610c87565b60405180910390a25b81156105fa574781111561054c576040517f08c379a000000000000000000000000000000000000000000000000000000000815260040161054390610d27565b60405180910390fd5b60003373ffffffffffffffffffffffffffffffffffffffff168260405161057290610d78565b60006040518083038185875af1925050503d80600081146105af576040519150601f19603f3d011682016040523d82523d6000602084013e6105b4565b606091505b50509050806105f8576040517f08c379a00000000000000000000000000000000000000000000000000000000081526004016105ef90610dff565b60405180910390fd5b505b505050505050565b610698816040516024016106169190610e9e565b6040516020818303038152906040527f41304fac000000000000000000000000000000000000000000000000000000007bffffffffffffffffffffffffffffffffffffffffffffffffffffffff19166020820180517bffffffffffffffffffffffffffffffffffffffffffffffffffffffff83818316178352505050506107d0565b50565b61073382826040516024016106b1929190610ec0565b6040516020818303038152906040527fb60e72cc000000000000000000000000000000000000000000000000000000007bffffffffffffffffffffffffffffffffffffffffffffffffffffffff19166020820180517bffffffffffffffffffffffffffffffffffffffffffffffffffffffff83818316178352505050506107d0565b5050565b6107cd8160405160240161074b91906108a7565b6040516020818303038152906040527ff82c50f1000000000000000000000000000000000000000000000000000000007bffffffffffffffffffffffffffffffffffffffffffffffffffffffff19166020820180517bffffffffffffffffffffffffffffffffffffffffffffffffffffffff83818316178352505050506107d0565b50565b60008151905060006a636f6e736f6c652e6c6f679050602083016000808483855afa5050505050565b600060ff82169050919050565b61080f816107f9565b82525050565b600060208201905061082a6000830184610806565b92915050565b600080fd5b6000819050919050565b61084881610835565b811461085357600080fd5b50565b6000813590506108658161083f565b92915050565b60006020828403121561088157610880610830565b5b600061088f84828501610856565b91505092915050565b6108a181610835565b82525050565b60006020820190506108bc6000830184610898565b92915050565b7f4e487b7100000000000000000000000000000000000000000000000000000000600052601160045260246000fd5b60006108fc82610835565b91507fffffffffffffffffffffffffffffffffffffffffffffffffffffffffffffffff820361092e5761092d6108c2565b5b600182019050919050565b6000819050919050565b61095461094f82610835565b610939565b82525050565b600073ffffffffffffffffffffffffffffffffffffffff82169050919050565b60006109858261095a565b9050919050565b60008160601b9050919050565b60006109a48261098c565b9050919050565b60006109b682610999565b9050919050565b6109ce6109c98261097a565b6109ab565b82525050565b60006109e08286610943565b6020820191506109f082856109bd565b601482019150610a008284610943565b602082019150819050949350505050565b7f4e487b7100000000000000000000000000000000000000000000000000000000600052601260045260246000fd5b6000610a4b826107f9565b9150610a56836107f9565b925082610a6657610a65610a11565b5b828206905092915050565b6000606082019050610a866000830186610898565b610a936020830185610898565b610aa06040830184610898565b949350505050565b6000610ab382610835565b9150610abe83610835565b9250828202610acc81610835565b91508282048414831517610ae357610ae26108c2565b5b5092915050565b600082825260208201905092915050565b7f4a41434b504f542120596f7520747269706c656420796f75722045544820626560008201527f7400000000000000000000000000000000000000000000000000000000000000602082015250565b6000610b57602183610aea565b9150610b6282610afb565b604082019050919050565b6000604082019050610b826000830184610898565b8181036020830152610b9381610b4a565b905092915050565b7f436f6e67726174756c6174696f6e732e20596f7520646f75626c656420796f7560008201527f7220455448206265740000000000000000000000000000000000000000000000602082015250565b6000610bf7602983610aea565b9150610c0282610b9b565b604082019050919050565b6000604082019050610c226000830184610898565b8181036020830152610c3381610bea565b905092915050565b7f4c6f7365722e203a290000000000000000000000000000000000000000000000600082015250565b6000610c71600983610aea565b9150610c7c82610c3b565b602082019050919050565b6000604082019050610c9c6000830184610898565b8181036020830152610cad81610c64565b905092915050565b7f547279696e6720746f207769746864726177206d6f7265206d6f6e657920746860008201527f616e2074686520636f6e7472616374206861732e000000000000000000000000602082015250565b6000610d11603483610aea565b9150610d1c82610cb5565b604082019050919050565b60006020820190508181036000830152610d4081610d04565b9050919050565b600081905092915050565b50565b6000610d62600083610d47565b9150610d6d82610d52565b600082019050919050565b6000610d8382610d55565b9150819050919050565b7f4661696c656420746f207769746864726177206d6f6e65792066726f6d20636f60008201527f6e74726163742e00000000000000000000000000000000000000000000000000602082015250565b6000610de9602783610aea565b9150610df482610d8d565b604082019050919050565b60006020820190508181036000830152610e1881610ddc565b9050919050565b600081519050919050565b60005b83811015610e48578082015181840152602081019050610e2d565b60008484015250505050565b6000601f19601f8301169050919050565b6000610e7082610e1f565b610e7a8185610aea565b9350610e8a818560208601610e2a565b610e9381610e54565b840191505092915050565b60006020820190508181036000830152610eb88184610e65565b905092915050565b60006040820190508181036000830152610eda8185610e65565b9050610ee96020830184610898565b939250505056fea2646970667358221220279adb9e9c2c4d1aea59abf5a345c923a5c84a6094b208db48fb292c26c70dab64736f6c63430008110033",
    "linkReferences": {},
    "deployedLinkReferences": {}
}