{
  "_format": "hh-sol-artifact-1",
  "contractName": "SlotMachine",
  "sourceName": "contracts/SlotMachine.sol",
  "abi": [
    {
      "inputs": [],
      "stateMutability": "payable",
      "type": "constructor"
    },
    {
      "anonymous": false,
      "inputs": [
        {
          "indexed": false,
          "internalType": "uint256",
          "name": "reel1",
          "type": "uint256"
        },
        {
          "indexed": false,
          "internalType": "uint256",
          "name": "reel2",
          "type": "uint256"
        },
        {
          "indexed": false,
          "internalType": "uint256",
          "name": "reel3",
          "type": "uint256"
        }
      ],
      "name": "Nums",
      "type": "event"
    },
    {
      "anonymous": false,
      "inputs": [
        {
          "indexed": true,
          "internalType": "address",
          "name": "from",
          "type": "address"
        },
        {
          "indexed": false,
          "internalType": "uint256",
          "name": "timestamp",
          "type": "uint256"
        },
        {
          "indexed": false,
          "internalType": "string",
          "name": "message",
          "type": "string"
        }
      ],
      "name": "Result",
      "type": "event"
    },
    {
      "anonymous": false,
      "inputs": [
        {
          "indexed": false,
          "internalType": "uint256",
          "name": "betAmount",
          "type": "uint256"
        },
        {
          "indexed": false,
          "internalType": "uint256",
          "name": "userBalance",
          "type": "uint256"
        },
        {
          "indexed": false,
          "internalType": "uint256",
          "name": "contractBalance",
          "type": "uint256"
        }
      ],
      "name": "balances",
      "type": "event"
    },
    {
      "inputs": [],
      "name": "contractBalance",
      "outputs": [
        {
          "internalType": "uint256",
          "name": "",
          "type": "uint256"
        }
      ],
      "stateMutability": "view",
      "type": "function"
    },
    {
      "inputs": [
        {
          "internalType": "uint256",
          "name": "_betAmount",
          "type": "uint256"
        }
      ],
      "name": "logicOfLuck",
      "outputs": [],
      "stateMutability": "payable",
      "type": "function"
    },
    {
      "inputs": [
        {
          "internalType": "uint256",
          "name": "_betAmount",
          "type": "uint256"
        }
      ],
      "name": "play",
      "outputs": [],
      "stateMutability": "payable",
      "type": "function"
    },
    {
      "inputs": [],
      "name": "random",
      "outputs": [
        {
          "internalType": "uint8",
          "name": "",
          "type": "uint8"
        }
      ],
      "stateMutability": "nonpayable",
      "type": "function"
    }
  ],
  "bytecode": "0x60806040526000600155620000546040518060400160405280600e81526020017f436f6e74726163742068657265210000000000000000000000000000000000008152506200005a60201b6200063d1760201c565b620001e4565b620000fa81604051602401620000719190620001c0565b6040516020818303038152906040527f41304fac000000000000000000000000000000000000000000000000000000007bffffffffffffffffffffffffffffffffffffffffffffffffffffffff19166020820180517bffffffffffffffffffffffffffffffffffffffffffffffffffffffff8381831617835250505050620000fd60201b60201c565b50565b60008151905060006a636f6e736f6c652e6c6f679050602083016000808483855afa5050505050565b600081519050919050565b600082825260208201905092915050565b60005b838110156200016257808201518184015260208101905062000145565b60008484015250505050565b6000601f19601f8301169050919050565b60006200018c8262000126565b62000198818562000131565b9350620001aa81856020860162000142565b620001b5816200016e565b840191505092915050565b60006020820190508181036000830152620001dc81846200017f565b905092915050565b610fd380620001f46000396000f3fe60806040526004361061003f5760003560e01c80635ec01e4d146100445780636898f82b1461006f5780638b7afe2e1461008b5780638c359473146100b6575b600080fd5b34801561005057600080fd5b506100596100d2565b6040516100669190610850565b60405180910390f35b610089600480360381019061008491906108a6565b61012d565b005b34801561009757600080fd5b506100a0610259565b6040516100ad91906108e2565b60405180910390f35b6100d060048036038101906100cb91906108a6565b61025f565b005b6000600160008154809291906100e79061092c565b91905055506014423360015460405160200161010593929190610a0f565b6040516020818303038152906040528051906020012060001c6101289190610a7b565b905090565b60003373ffffffffffffffffffffffffffffffffffffffff163190506101886040518060400160405280600b81526020017f62657420616d6f756e7420000000000000000000000000000000000000000000815250836106d6565b6101c76040518060400160405280600e81526020017f757365722062616c616e63653a20000000000000000000000000000000000000815250826106d6565b4760008190555061020f6040518060400160405280601281526020017f636f6e74726163742042616c616e63653a2000000000000000000000000000008152506000546106d6565b7fec1755815c979b26f7aae33a09175d2f4fa82c802354e2c2ec79d20732029c0a828260005460405161024493929190610aac565b60405180910390a16102558261025f565b5050565b60005481565b60006102696100d2565b905060006102756100d2565b905060006102816100d2565b90507f92960dd5325cfabf26bb0d1d70c32672de73836388517eeeb6bb9502497073988383836040516102b693929190610b1e565b60405180910390a160006102ff6040518060400160405280600c81526020017f416d6f756e74206265743a200000000000000000000000000000000000000000815250866106d6565b6103416040518060400160405280600781526020017f5265656c313a20000000000000000000000000000000000000000000000000008152508560ff166106d6565b6103836040518060400160405280600781526020017f5265656c323a20000000000000000000000000000000000000000000000000008152508460ff166106d6565b6103c56040518060400160405280600781526020017f5265656c333a20000000000000000000000000000000000000000000000000008152508360ff166106d6565b60008360ff168560ff1614806103e057508260ff168460ff16145b806103f057508460ff168360ff16145b156104ef578360ff168560ff1614801561040f57508260ff168460ff16145b1561047f576003866104219190610b55565b905061042c81610772565b3373ffffffffffffffffffffffffffffffffffffffff167fab13770b3bea602d439696b4418374f25e3261f7d6de9b218ffd9b49b9f4b9d9426040516104729190610c1a565b60405180910390a26104e6565b3373ffffffffffffffffffffffffffffffffffffffff167fab13770b3bea602d439696b4418374f25e3261f7d6de9b218ffd9b49b9f4b9d9426040516104c59190610cba565b60405180910390a26002866104da9190610b55565b90506104e581610772565b5b6001915061053e565b3373ffffffffffffffffffffffffffffffffffffffff167fab13770b3bea602d439696b4418374f25e3261f7d6de9b218ffd9b49b9f4b9d9426040516105359190610d34565b60405180910390a25b81156106355747811115610587576040517f08c379a000000000000000000000000000000000000000000000000000000000815260040161057e90610dd4565b60405180910390fd5b60003373ffffffffffffffffffffffffffffffffffffffff16826040516105ad90610e25565b60006040518083038185875af1925050503d80600081146105ea576040519150601f19603f3d011682016040523d82523d6000602084013e6105ef565b606091505b5050905080610633576040517f08c379a000000000000000000000000000000000000000000000000000000000815260040161062a90610eac565b60405180910390fd5b505b505050505050565b6106d3816040516024016106519190610f4b565b6040516020818303038152906040527f41304fac000000000000000000000000000000000000000000000000000000007bffffffffffffffffffffffffffffffffffffffffffffffffffffffff19166020820180517bffffffffffffffffffffffffffffffffffffffffffffffffffffffff838183161783525050505061080b565b50565b61076e82826040516024016106ec929190610f6d565b6040516020818303038152906040527fb60e72cc000000000000000000000000000000000000000000000000000000007bffffffffffffffffffffffffffffffffffffffffffffffffffffffff19166020820180517bffffffffffffffffffffffffffffffffffffffffffffffffffffffff838183161783525050505061080b565b5050565b6108088160405160240161078691906108e2565b6040516020818303038152906040527ff82c50f1000000000000000000000000000000000000000000000000000000007bffffffffffffffffffffffffffffffffffffffffffffffffffffffff19166020820180517bffffffffffffffffffffffffffffffffffffffffffffffffffffffff838183161783525050505061080b565b50565b60008151905060006a636f6e736f6c652e6c6f679050602083016000808483855afa5050505050565b600060ff82169050919050565b61084a81610834565b82525050565b60006020820190506108656000830184610841565b92915050565b600080fd5b6000819050919050565b61088381610870565b811461088e57600080fd5b50565b6000813590506108a08161087a565b92915050565b6000602082840312156108bc576108bb61086b565b5b60006108ca84828501610891565b91505092915050565b6108dc81610870565b82525050565b60006020820190506108f760008301846108d3565b92915050565b7f4e487b7100000000000000000000000000000000000000000000000000000000600052601160045260246000fd5b600061093782610870565b91507fffffffffffffffffffffffffffffffffffffffffffffffffffffffffffffffff8203610969576109686108fd565b5b600182019050919050565b6000819050919050565b61098f61098a82610870565b610974565b82525050565b600073ffffffffffffffffffffffffffffffffffffffff82169050919050565b60006109c082610995565b9050919050565b60008160601b9050919050565b60006109df826109c7565b9050919050565b60006109f1826109d4565b9050919050565b610a09610a04826109b5565b6109e6565b82525050565b6000610a1b828661097e565b602082019150610a2b82856109f8565b601482019150610a3b828461097e565b602082019150819050949350505050565b7f4e487b7100000000000000000000000000000000000000000000000000000000600052601260045260246000fd5b6000610a8682610834565b9150610a9183610834565b925082610aa157610aa0610a4c565b5b828206905092915050565b6000606082019050610ac160008301866108d3565b610ace60208301856108d3565b610adb60408301846108d3565b949350505050565b6000819050919050565b6000610b08610b03610afe84610834565b610ae3565b610870565b9050919050565b610b1881610aed565b82525050565b6000606082019050610b336000830186610b0f565b610b406020830185610b0f565b610b4d6040830184610b0f565b949350505050565b6000610b6082610870565b9150610b6b83610870565b9250828202610b7981610870565b91508282048414831517610b9057610b8f6108fd565b5b5092915050565b600082825260208201905092915050565b7f4a41434b504f542120596f7520747269706c656420796f75722045544820626560008201527f7400000000000000000000000000000000000000000000000000000000000000602082015250565b6000610c04602183610b97565b9150610c0f82610ba8565b604082019050919050565b6000604082019050610c2f60008301846108d3565b8181036020830152610c4081610bf7565b905092915050565b7f436f6e67726174756c6174696f6e732e20596f7520646f75626c656420796f7560008201527f7220455448206265740000000000000000000000000000000000000000000000602082015250565b6000610ca4602983610b97565b9150610caf82610c48565b604082019050919050565b6000604082019050610ccf60008301846108d3565b8181036020830152610ce081610c97565b905092915050565b7f4c6f7365722e203a290000000000000000000000000000000000000000000000600082015250565b6000610d1e600983610b97565b9150610d2982610ce8565b602082019050919050565b6000604082019050610d4960008301846108d3565b8181036020830152610d5a81610d11565b905092915050565b7f547279696e6720746f207769746864726177206d6f7265206d6f6e657920746860008201527f616e2074686520636f6e7472616374206861732e000000000000000000000000602082015250565b6000610dbe603483610b97565b9150610dc982610d62565b604082019050919050565b60006020820190508181036000830152610ded81610db1565b9050919050565b600081905092915050565b50565b6000610e0f600083610df4565b9150610e1a82610dff565b600082019050919050565b6000610e3082610e02565b9150819050919050565b7f4661696c656420746f207769746864726177206d6f6e65792066726f6d20636f60008201527f6e74726163742e00000000000000000000000000000000000000000000000000602082015250565b6000610e96602783610b97565b9150610ea182610e3a565b604082019050919050565b60006020820190508181036000830152610ec581610e89565b9050919050565b600081519050919050565b60005b83811015610ef5578082015181840152602081019050610eda565b60008484015250505050565b6000601f19601f8301169050919050565b6000610f1d82610ecc565b610f278185610b97565b9350610f37818560208601610ed7565b610f4081610f01565b840191505092915050565b60006020820190508181036000830152610f658184610f12565b905092915050565b60006040820190508181036000830152610f878185610f12565b9050610f9660208301846108d3565b939250505056fea264697066735822122038eb1744447a7bb218ea8e77f7daf98d152ab42e447612243a836409e0d1a95e64736f6c63430008110033",
  "linkReferences": {},
  "deployedLinkReferences": {}
}