{
  "_format": "hh-sol-artifact-1",
  "contractName": "SlotMachine",
  "sourceName": "contracts/SlotMachine.sol",
  "abi": [
    {
      "inputs": [],
      "stateMutability": "payable",
      "type": "constructor"
    },
    {
      "anonymous": false,
      "inputs": [
        {
          "indexed": false,
          "internalType": "uint256",
          "name": "betAmount",
          "type": "uint256"
        },
        {
          "indexed": false,
          "internalType": "uint256",
          "name": "userBalance",
          "type": "uint256"
        },
        {
          "indexed": false,
          "internalType": "uint256",
          "name": "contractBalance",
          "type": "uint256"
        }
      ],
      "name": "balances",
      "type": "event"
    },
    {
      "inputs": [],
      "name": "contractBalance",
      "outputs": [
        {
          "internalType": "uint256",
          "name": "",
          "type": "uint256"
        }
      ],
      "stateMutability": "view",
      "type": "function"
    },
    {
      "inputs": [
        {
          "internalType": "uint256",
          "name": "_betAmount",
          "type": "uint256"
        }
      ],
      "name": "logicOfLuck",
      "outputs": [],
      "stateMutability": "payable",
      "type": "function"
    },
    {
      "inputs": [
        {
          "internalType": "uint256",
          "name": "_betAmount",
          "type": "uint256"
        }
      ],
      "name": "play",
      "outputs": [],
      "stateMutability": "payable",
      "type": "function"
    },
    {
      "inputs": [
        {
          "internalType": "address",
          "name": "",
          "type": "address"
        }
      ],
      "name": "players",
      "outputs": [
        {
          "internalType": "int256",
          "name": "",
          "type": "int256"
        }
      ],
      "stateMutability": "view",
      "type": "function"
    },
    {
      "inputs": [],
      "name": "random",
      "outputs": [
        {
          "internalType": "uint8",
          "name": "",
          "type": "uint8"
        }
      ],
      "stateMutability": "nonpayable",
      "type": "function"
    }
  ],
  "bytecode": "0x60806040526000600255620000546040518060400160405280600e81526020017f436f6e74726163742068657265210000000000000000000000000000000000008152506200005a60201b6200061c1760201c565b620001e4565b620000fa81604051602401620000719190620001c0565b6040516020818303038152906040527f41304fac000000000000000000000000000000000000000000000000000000007bffffffffffffffffffffffffffffffffffffffffffffffffffffffff19166020820180517bffffffffffffffffffffffffffffffffffffffffffffffffffffffff8381831617835250505050620000fd60201b60201c565b50565b60008151905060006a636f6e736f6c652e6c6f679050602083016000808483855afa5050505050565b600081519050919050565b600082825260208201905092915050565b60005b838110156200016257808201518184015260208101905062000145565b60008484015250505050565b6000601f19601f8301169050919050565b60006200018c8262000126565b62000198818562000131565b9350620001aa81856020860162000142565b620001b5816200016e565b840191505092915050565b60006020820190508181036000830152620001dc81846200017f565b905092915050565b610dc580620001f46000396000f3fe60806040526004361061004a5760003560e01c80635ec01e4d1461004f5780636898f82b1461007a5780638b7afe2e146100965780638c359473146100c1578063e2eb41ff146100dd575b600080fd5b34801561005b57600080fd5b5061006461011a565b6040516100719190610796565b60405180910390f35b610094600480360381019061008f91906107ec565b610175565b005b3480156100a257600080fd5b506100ab6102c3565b6040516100b89190610828565b60405180910390f35b6100db60048036038101906100d691906107ec565b6102c9565b005b3480156100e957600080fd5b5061010460048036038101906100ff91906108a1565b610604565b60405161011191906108e7565b60405180910390f35b60006002600081548092919061012f90610931565b91905055506014423360025460405160200161014d939291906109e2565b6040516020818303038152906040528051906020012060001c6101709190610a4e565b905090565b60003490506101b96040518060400160405280600b81526020017f62657420616d6f756e7420000000000000000000000000000000000000000000815250836106b5565b6101f86040518060400160405280600e81526020017f757365722062616c616e63653a20000000000000000000000000000000000000815250826106b5565b81811161023a576040517f08c379a000000000000000000000000000000000000000000000000000000000815260040161023190610adc565b60405180910390fd5b476001819055506102826040518060400160405280601281526020017f636f6e74726163742042616c616e63653a2000000000000000000000000000008152506001546106b5565b7fec1755815c979b26f7aae33a09175d2f4fa82c802354e2c2ec79d20732029c0a82826001546040516102b793929190610afc565b60405180910390a15050565b60015481565b60006102d361011a565b905060006102df61011a565b905060006102eb61011a565b9050600061032e6040518060400160405280600c81526020017f416d6f756e74206265743a200000000000000000000000000000000000000000815250866106b5565b6103706040518060400160405280600781526020017f5265656c313a20000000000000000000000000000000000000000000000000008152508560ff166106b5565b6103b26040518060400160405280600781526020017f5265656c323a20000000000000000000000000000000000000000000000000008152508460ff166106b5565b6103f46040518060400160405280600781526020017f5265656c333a20000000000000000000000000000000000000000000000000008152508360ff166106b5565b60008360ff168560ff16148061040f57508260ff168460ff16145b8061041f57508460ff168360ff16145b156104c6578360ff168560ff1614801561043e57508260ff168460ff16145b15610491576104816040518060400160405280601881526020017f4a41434b504f542120596f752077696e20302e3120455448000000000000000081525061061c565b67016345785d8a000090506104bd565b6104b2604051806060016040528060218152602001610d6f6021913961061c565b662386f26fc1000090505b60019150610505565b6105046040518060400160405280600981526020017f4c6f736572203a2920000000000000000000000000000000000000000000000081525061061c565b5b81156105fc574781111561054e576040517f08c379a000000000000000000000000000000000000000000000000000000000815260040161054590610ba5565b60405180910390fd5b60003373ffffffffffffffffffffffffffffffffffffffff168260405161057490610bf6565b60006040518083038185875af1925050503d80600081146105b1576040519150601f19603f3d011682016040523d82523d6000602084013e6105b6565b606091505b50509050806105fa576040517f08c379a00000000000000000000000000000000000000000000000000000000081526004016105f190610c7d565b60405180910390fd5b505b505050505050565b60006020528060005260406000206000915090505481565b6106b2816040516024016106309190610d1c565b6040516020818303038152906040527f41304fac000000000000000000000000000000000000000000000000000000007bffffffffffffffffffffffffffffffffffffffffffffffffffffffff19166020820180517bffffffffffffffffffffffffffffffffffffffffffffffffffffffff8381831617835250505050610751565b50565b61074d82826040516024016106cb929190610d3e565b6040516020818303038152906040527fb60e72cc000000000000000000000000000000000000000000000000000000007bffffffffffffffffffffffffffffffffffffffffffffffffffffffff19166020820180517bffffffffffffffffffffffffffffffffffffffffffffffffffffffff8381831617835250505050610751565b5050565b60008151905060006a636f6e736f6c652e6c6f679050602083016000808483855afa5050505050565b600060ff82169050919050565b6107908161077a565b82525050565b60006020820190506107ab6000830184610787565b92915050565b600080fd5b6000819050919050565b6107c9816107b6565b81146107d457600080fd5b50565b6000813590506107e6816107c0565b92915050565b600060208284031215610802576108016107b1565b5b6000610810848285016107d7565b91505092915050565b610822816107b6565b82525050565b600060208201905061083d6000830184610819565b92915050565b600073ffffffffffffffffffffffffffffffffffffffff82169050919050565b600061086e82610843565b9050919050565b61087e81610863565b811461088957600080fd5b50565b60008135905061089b81610875565b92915050565b6000602082840312156108b7576108b66107b1565b5b60006108c58482850161088c565b91505092915050565b6000819050919050565b6108e1816108ce565b82525050565b60006020820190506108fc60008301846108d8565b92915050565b7f4e487b7100000000000000000000000000000000000000000000000000000000600052601160045260246000fd5b600061093c826107b6565b91507fffffffffffffffffffffffffffffffffffffffffffffffffffffffffffffffff820361096e5761096d610902565b5b600182019050919050565b6000819050919050565b61099461098f826107b6565b610979565b82525050565b60008160601b9050919050565b60006109b28261099a565b9050919050565b60006109c4826109a7565b9050919050565b6109dc6109d782610863565b6109b9565b82525050565b60006109ee8286610983565b6020820191506109fe82856109cb565b601482019150610a0e8284610983565b602082019150819050949350505050565b7f4e487b7100000000000000000000000000000000000000000000000000000000600052601260045260246000fd5b6000610a598261077a565b9150610a648361077a565b925082610a7457610a73610a1f565b5b828206905092915050565b600082825260208201905092915050565b7f557365722073686f756c64206861766520656e6f7567682062616c616e636500600082015250565b6000610ac6601f83610a7f565b9150610ad182610a90565b602082019050919050565b60006020820190508181036000830152610af581610ab9565b9050919050565b6000606082019050610b116000830186610819565b610b1e6020830185610819565b610b2b6040830184610819565b949350505050565b7f547279696e6720746f207769746864726177206d6f7265206d6f6e657920746860008201527f616e2074686520636f6e7472616374206861732e000000000000000000000000602082015250565b6000610b8f603483610a7f565b9150610b9a82610b33565b604082019050919050565b60006020820190508181036000830152610bbe81610b82565b9050919050565b600081905092915050565b50565b6000610be0600083610bc5565b9150610beb82610bd0565b600082019050919050565b6000610c0182610bd3565b9150819050919050565b7f4661696c656420746f207769746864726177206d6f6e65792066726f6d20636f60008201527f6e74726163742e00000000000000000000000000000000000000000000000000602082015250565b6000610c67602783610a7f565b9150610c7282610c0b565b604082019050919050565b60006020820190508181036000830152610c9681610c5a565b9050919050565b600081519050919050565b60005b83811015610cc6578082015181840152602081019050610cab565b60008484015250505050565b6000601f19601f8301169050919050565b6000610cee82610c9d565b610cf88185610a7f565b9350610d08818560208601610ca8565b610d1181610cd2565b840191505092915050565b60006020820190508181036000830152610d368184610ce3565b905092915050565b60006040820190508181036000830152610d588185610ce3565b9050610d676020830184610819565b939250505056fe436f6e67726174756c6174696f6e732e20596f752077696e20302e303120455448a2646970667358221220046bf4a1d0112ce8d3c9489ad2831008ccae7a5718e49b3cd74c7072930908b064736f6c63430008110033",
  "linkReferences": {},
  "deployedLinkReferences": {}
}