{
    "_format": "hh-sol-artifact-1",
    "contractName": "SlotMachine",
    "sourceName": "contracts/SlotMachine.sol",
    "abi": [
        {
            "inputs": [],
            "stateMutability": "payable",
            "type": "constructor"
        },
        {
            "anonymous": false,
            "inputs": [
                {
                    "indexed": false,
                    "internalType": "uint256",
                    "name": "betAmount",
                    "type": "uint256"
                },
                {
                    "indexed": false,
                    "internalType": "uint256",
                    "name": "userBalance",
                    "type": "uint256"
                },
                {
                    "indexed": false,
                    "internalType": "uint256",
                    "name": "contractBalance",
                    "type": "uint256"
                }
            ],
            "name": "balances",
            "type": "event"
        },
        {
            "inputs": [],
            "name": "contractBalance",
            "outputs": [
                {
                    "internalType": "uint256",
                    "name": "",
                    "type": "uint256"
                }
            ],
            "stateMutability": "view",
            "type": "function"
        },
        {
            "inputs": [
                {
                    "internalType": "uint256",
                    "name": "_betAmount",
                    "type": "uint256"
                }
            ],
            "name": "logicOfLuck",
            "outputs": [],
            "stateMutability": "payable",
            "type": "function"
        },
        {
            "inputs": [
                {
                    "internalType": "uint256",
                    "name": "_betAmount",
                    "type": "uint256"
                }
            ],
            "name": "play",
            "outputs": [],
            "stateMutability": "payable",
            "type": "function"
        },
        {
            "inputs": [
                {
                    "internalType": "address",
                    "name": "",
                    "type": "address"
                }
            ],
            "name": "players",
            "outputs": [
                {
                    "internalType": "int256",
                    "name": "",
                    "type": "int256"
                }
            ],
            "stateMutability": "view",
            "type": "function"
        },
        {
            "inputs": [
                {
                    "internalType": "uint8",
                    "name": "option",
                    "type": "uint8"
                }
            ],
            "name": "random",
            "outputs": [
                {
                    "internalType": "uint8",
                    "name": "",
                    "type": "uint8"
                }
            ],
            "stateMutability": "view",
            "type": "function"
        }
    ],
    "bytecode": "0x60806040526200004f6040518060400160405280600e81526020017f436f6e74726163742068657265210000000000000000000000000000000000008152506200005560201b620006cd1760201c565b620001df565b620000f5816040516024016200006c9190620001bb565b6040516020818303038152906040527f41304fac000000000000000000000000000000000000000000000000000000007bffffffffffffffffffffffffffffffffffffffffffffffffffffffff19166020820180517bffffffffffffffffffffffffffffffffffffffffffffffffffffffff8381831617835250505050620000f860201b60201c565b50565b60008151905060006a636f6e736f6c652e6c6f679050602083016000808483855afa5050505050565b600081519050919050565b600082825260208201905092915050565b60005b838110156200015d57808201518184015260208101905062000140565b60008484015250505050565b6000601f19601f8301169050919050565b6000620001878262000121565b6200019381856200012c565b9350620001a58185602086016200013d565b620001b08162000169565b840191505092915050565b60006020820190508181036000830152620001d781846200017a565b905092915050565b610eb580620001ef6000396000f3fe60806040526004361061004a5760003560e01c80636898f82b1461004f5780638b7afe2e1461006b5780638c35947314610096578063e0e0e2d3146100b2578063e2eb41ff146100ef575b600080fd5b61006960048036038101906100649190610866565b61012c565b005b34801561007757600080fd5b5061008061027a565b60405161008d91906108a2565b60405180910390f35b6100b060048036038101906100ab9190610866565b610280565b005b3480156100be57600080fd5b506100d960048036038101906100d491906108f6565b6105c1565b6040516100e69190610932565b60405180910390f35b3480156100fb57600080fd5b50610116600480360381019061011191906109ab565b6106b5565b60405161012391906109f1565b60405180910390f35b60003490506101706040518060400160405280600b81526020017f62657420616d6f756e742000000000000000000000000000000000000000000081525083610766565b6101af6040518060400160405280600e81526020017f757365722062616c616e63653a2000000000000000000000000000000000000081525082610766565b8181116101f1576040517f08c379a00000000000000000000000000000000000000000000000000000000081526004016101e890610a69565b60405180910390fd5b476001819055506102396040518060400160405280601281526020017f636f6e74726163742042616c616e63653a200000000000000000000000000000815250600154610766565b7fec1755815c979b26f7aae33a09175d2f4fa82c802354e2c2ec79d20732029c0a828260015460405161026e93929190610a89565b60405180910390a15050565b60015481565b600061028c60016105c1565b9050600061029a60026105c1565b905060006102a860036105c1565b905060006102eb6040518060400160405280600c81526020017f416d6f756e74206265743a20000000000000000000000000000000000000000081525086610766565b61032d6040518060400160405280600781526020017f5265656c313a20000000000000000000000000000000000000000000000000008152508560ff16610766565b61036f6040518060400160405280600781526020017f5265656c323a20000000000000000000000000000000000000000000000000008152508460ff16610766565b6103b16040518060400160405280600781526020017f5265656c333a20000000000000000000000000000000000000000000000000008152508360ff16610766565b60008360ff168560ff1614806103cc57508260ff168460ff16145b806103dc57508460ff168360ff16145b15610483578360ff168560ff161480156103fb57508260ff168460ff16145b1561044e5761043e6040518060400160405280601881526020017f4a41434b504f542120596f752077696e20302e312045544800000000000000008152506106cd565b67016345785d8a0000905061047a565b61046f604051806060016040528060218152602001610e5f602191396106cd565b662386f26fc1000090505b600191506104c2565b6104c16040518060400160405280600981526020017f4c6f736572203a292000000000000000000000000000000000000000000000008152506106cd565b5b81156105b9574781111561050b576040517f08c379a000000000000000000000000000000000000000000000000000000000815260040161050290610b32565b60405180910390fd5b60003373ffffffffffffffffffffffffffffffffffffffff168260405161053190610b83565b60006040518083038185875af1925050503d806000811461056e576040519150601f19603f3d011682016040523d82523d6000602084013e610573565b606091505b50509050806105b7576040517f08c379a00000000000000000000000000000000000000000000000000000000081526004016105ae90610c0a565b60405180910390fd5b505b505050505050565b600060018260ff16036106175760016005426040516020016105e39190610c4b565b6040516020818303038152906040528051906020012060001c6106069190610c95565b6106109190610cf5565b90506106b0565b60028260ff160361066b576001600a446040516020016106379190610c4b565b6040516020818303038152906040528051906020012060001c61065a9190610c95565b6106649190610cf5565b90506106b0565b6001600a336040516020016106809190610d72565b6040516020818303038152906040528051906020012060001c6106a39190610c95565b6106ad9190610cf5565b90505b919050565b60006020528060005260406000206000915090505481565b610763816040516024016106e19190610e0c565b6040516020818303038152906040527f41304fac000000000000000000000000000000000000000000000000000000007bffffffffffffffffffffffffffffffffffffffffffffffffffffffff19166020820180517bffffffffffffffffffffffffffffffffffffffffffffffffffffffff8381831617835250505050610802565b50565b6107fe828260405160240161077c929190610e2e565b6040516020818303038152906040527fb60e72cc000000000000000000000000000000000000000000000000000000007bffffffffffffffffffffffffffffffffffffffffffffffffffffffff19166020820180517bffffffffffffffffffffffffffffffffffffffffffffffffffffffff8381831617835250505050610802565b5050565b60008151905060006a636f6e736f6c652e6c6f679050602083016000808483855afa5050505050565b600080fd5b6000819050919050565b61084381610830565b811461084e57600080fd5b50565b6000813590506108608161083a565b92915050565b60006020828403121561087c5761087b61082b565b5b600061088a84828501610851565b91505092915050565b61089c81610830565b82525050565b60006020820190506108b76000830184610893565b92915050565b600060ff82169050919050565b6108d3816108bd565b81146108de57600080fd5b50565b6000813590506108f0816108ca565b92915050565b60006020828403121561090c5761090b61082b565b5b600061091a848285016108e1565b91505092915050565b61092c816108bd565b82525050565b60006020820190506109476000830184610923565b92915050565b600073ffffffffffffffffffffffffffffffffffffffff82169050919050565b60006109788261094d565b9050919050565b6109888161096d565b811461099357600080fd5b50565b6000813590506109a58161097f565b92915050565b6000602082840312156109c1576109c061082b565b5b60006109cf84828501610996565b91505092915050565b6000819050919050565b6109eb816109d8565b82525050565b6000602082019050610a0660008301846109e2565b92915050565b600082825260208201905092915050565b7f557365722073686f756c64206861766520656e6f7567682062616c616e636500600082015250565b6000610a53601f83610a0c565b9150610a5e82610a1d565b602082019050919050565b60006020820190508181036000830152610a8281610a46565b9050919050565b6000606082019050610a9e6000830186610893565b610aab6020830185610893565b610ab86040830184610893565b949350505050565b7f547279696e6720746f207769746864726177206d6f7265206d6f6e657920746860008201527f616e2074686520636f6e7472616374206861732e000000000000000000000000602082015250565b6000610b1c603483610a0c565b9150610b2782610ac0565b604082019050919050565b60006020820190508181036000830152610b4b81610b0f565b9050919050565b600081905092915050565b50565b6000610b6d600083610b52565b9150610b7882610b5d565b600082019050919050565b6000610b8e82610b60565b9150819050919050565b7f4661696c656420746f207769746864726177206d6f6e65792066726f6d20636f60008201527f6e74726163742e00000000000000000000000000000000000000000000000000602082015250565b6000610bf4602783610a0c565b9150610bff82610b98565b604082019050919050565b60006020820190508181036000830152610c2381610be7565b9050919050565b6000819050919050565b610c45610c4082610830565b610c2a565b82525050565b6000610c578284610c34565b60208201915081905092915050565b7f4e487b7100000000000000000000000000000000000000000000000000000000600052601260045260246000fd5b6000610ca082610830565b9150610cab83610830565b925082610cbb57610cba610c66565b5b828206905092915050565b7f4e487b7100000000000000000000000000000000000000000000000000000000600052601160045260246000fd5b6000610d00826108bd565b9150610d0b836108bd565b9250828201905060ff811115610d2457610d23610cc6565b5b92915050565b60008160601b9050919050565b6000610d4282610d2a565b9050919050565b6000610d5482610d37565b9050919050565b610d6c610d678261096d565b610d49565b82525050565b6000610d7e8284610d5b565b60148201915081905092915050565b600081519050919050565b60005b83811015610db6578082015181840152602081019050610d9b565b60008484015250505050565b6000601f19601f8301169050919050565b6000610dde82610d8d565b610de88185610a0c565b9350610df8818560208601610d98565b610e0181610dc2565b840191505092915050565b60006020820190508181036000830152610e268184610dd3565b905092915050565b60006040820190508181036000830152610e488185610dd3565b9050610e576020830184610893565b939250505056fe436f6e67726174756c6174696f6e732e20596f752077696e20302e303120455448a2646970667358221220d291b7031e752724433785e2c82ae23208ca7bbcfe75430d23fa5debe54e2c2864736f6c63430008110033",
    "linkReferences": {},
    "deployedLinkReferences": {}
}